{
  "contractName": "DecentralBank",
  "abi": [
    {
      "inputs": [
        {
          "internalType": "contract RWD",
          "name": "_rwd",
          "type": "address"
        },
        {
          "internalType": "contract Tether",
          "name": "_tether",
          "type": "address"
        }
      ],
      "payable": false,
      "stateMutability": "nonpayable",
      "type": "constructor"
    },
    {
      "constant": true,
      "inputs": [
        {
          "internalType": "address",
          "name": "",
          "type": "address"
        }
      ],
      "name": "hasStaked",
      "outputs": [
        {
          "internalType": "bool",
          "name": "",
          "type": "bool"
        }
      ],
      "payable": false,
      "stateMutability": "view",
      "type": "function"
    },
    {
      "constant": true,
      "inputs": [
        {
          "internalType": "address",
          "name": "",
          "type": "address"
        }
      ],
      "name": "isStaking",
      "outputs": [
        {
          "internalType": "bool",
          "name": "",
          "type": "bool"
        }
      ],
      "payable": false,
      "stateMutability": "view",
      "type": "function"
    },
    {
      "constant": true,
      "inputs": [],
      "name": "name",
      "outputs": [
        {
          "internalType": "string",
          "name": "",
          "type": "string"
        }
      ],
      "payable": false,
      "stateMutability": "view",
      "type": "function"
    },
    {
      "constant": true,
      "inputs": [],
      "name": "owner",
      "outputs": [
        {
          "internalType": "address",
          "name": "",
          "type": "address"
        }
      ],
      "payable": false,
      "stateMutability": "view",
      "type": "function"
    },
    {
      "constant": true,
      "inputs": [],
      "name": "rwd",
      "outputs": [
        {
          "internalType": "contract RWD",
          "name": "",
          "type": "address"
        }
      ],
      "payable": false,
      "stateMutability": "view",
      "type": "function"
    },
    {
      "constant": true,
      "inputs": [
        {
          "internalType": "uint256",
          "name": "",
          "type": "uint256"
        }
      ],
      "name": "stakers",
      "outputs": [
        {
          "internalType": "address",
          "name": "",
          "type": "address"
        }
      ],
      "payable": false,
      "stateMutability": "view",
      "type": "function"
    },
    {
      "constant": true,
      "inputs": [
        {
          "internalType": "address",
          "name": "",
          "type": "address"
        }
      ],
      "name": "stakingBalance",
      "outputs": [
        {
          "internalType": "uint256",
          "name": "",
          "type": "uint256"
        }
      ],
      "payable": false,
      "stateMutability": "view",
      "type": "function"
    },
    {
      "constant": true,
      "inputs": [],
      "name": "tether",
      "outputs": [
        {
          "internalType": "contract Tether",
          "name": "",
          "type": "address"
        }
      ],
      "payable": false,
      "stateMutability": "view",
      "type": "function"
    },
    {
      "constant": false,
      "inputs": [
        {
          "internalType": "uint256",
          "name": "_amount",
          "type": "uint256"
        }
      ],
      "name": "depositTokens",
      "outputs": [],
      "payable": false,
      "stateMutability": "nonpayable",
      "type": "function"
    },
    {
      "constant": false,
      "inputs": [],
      "name": "unstakeToken",
      "outputs": [],
      "payable": false,
      "stateMutability": "nonpayable",
      "type": "function"
    },
    {
      "constant": false,
      "inputs": [],
      "name": "issueTokens",
      "outputs": [],
      "payable": false,
      "stateMutability": "nonpayable",
      "type": "function"
    }
  ],
  "bytecode": "0x60806040526040518060400160405280600e81526020017f446563656e7472616c2042616e6b0000000000000000000000000000000000008152506000908051906020019061004f929190610164565b5034801561005c57600080fd5b50604051610f76380380610f768339818101604052604081101561007f57600080fd5b81019080805190602001909291908051906020019092919050505081600260006101000a81548173ffffffffffffffffffffffffffffffffffffffff021916908373ffffffffffffffffffffffffffffffffffffffff16021790555080600360006101000a81548173ffffffffffffffffffffffffffffffffffffffff021916908373ffffffffffffffffffffffffffffffffffffffff16021790555033600160006101000a81548173ffffffffffffffffffffffffffffffffffffffff021916908373ffffffffffffffffffffffffffffffffffffffff1602179055505050610209565b828054600181600116156101000203166002900490600052602060002090601f016020900481019282601f106101a557805160ff19168380011785556101d3565b828001600101855582156101d3579182015b828111156101d25782518255916020019190600101906101b7565b5b5090506101e091906101e4565b5090565b61020691905b808211156102025760008160009055506001016101ea565b5090565b90565b610d5e806102186000396000f3fe608060405234801561001057600080fd5b50600436106100a95760003560e01c806360ab58521161007157806360ab5852146102275780636f49712b146102315780638da5cb5b1461028d578063c93c8f34146102d7578063dd49756e14610333578063fd5e6dd114610361576100a9565b806306fdde03146100ae5780631a8972d31461013157806320eb640c1461017b57806345bc78ab146101855780635efc071a146101dd575b600080fd5b6100b66103cf565b6040518080602001828103825283818151815260200191508051906020019080838360005b838110156100f65780820151818401526020810190506100db565b50505050905090810190601f1680156101235780820380516001836020036101000a031916815260200191505b509250505060405180910390f35b61013961046d565b604051808273ffffffffffffffffffffffffffffffffffffffff1673ffffffffffffffffffffffffffffffffffffffff16815260200191505060405180910390f35b610183610493565b005b6101c76004803603602081101561019b57600080fd5b81019080803573ffffffffffffffffffffffffffffffffffffffff1690602001909291905050506106d2565b6040518082815260200191505060405180910390f35b6101e56106ea565b604051808273ffffffffffffffffffffffffffffffffffffffff1673ffffffffffffffffffffffffffffffffffffffff16815260200191505060405180910390f35b61022f610710565b005b6102736004803603602081101561024757600080fd5b81019080803573ffffffffffffffffffffffffffffffffffffffff169060200190929190505050610908565b604051808215151515815260200191505060405180910390f35b610295610928565b604051808273ffffffffffffffffffffffffffffffffffffffff1673ffffffffffffffffffffffffffffffffffffffff16815260200191505060405180910390f35b610319600480360360208110156102ed57600080fd5b81019080803573ffffffffffffffffffffffffffffffffffffffff16906020019092919050505061094e565b604051808215151515815260200191505060405180910390f35b61035f6004803603602081101561034957600080fd5b810190808035906020019092919050505061096e565b005b61038d6004803603602081101561037757600080fd5b8101908080359060200190929190505050610ced565b604051808273ffffffffffffffffffffffffffffffffffffffff1673ffffffffffffffffffffffffffffffffffffffff16815260200191505060405180910390f35b60008054600181600116156101000203166002900480601f0160208091040260200160405190810160405280929190818152602001828054600181600116156101000203166002900480156104655780601f1061043a57610100808354040283529160200191610465565b820191906000526020600020905b81548152906001019060200180831161044857829003601f168201915b505050505081565b600260009054906101000a900473ffffffffffffffffffffffffffffffffffffffff1681565b6000600560003373ffffffffffffffffffffffffffffffffffffffff1673ffffffffffffffffffffffffffffffffffffffff1681526020019081526020016000205490506000811161054d576040517f08c379a00000000000000000000000000000000000000000000000000000000081526004018080602001828103825260138152602001807f416d6d6f756e742063616e6e6f7420626520300000000000000000000000000081525060200191505060405180910390fd5b600360009054906101000a900473ffffffffffffffffffffffffffffffffffffffff1673ffffffffffffffffffffffffffffffffffffffff1663a9059cbb33836040518363ffffffff1660e01b8152600401808373ffffffffffffffffffffffffffffffffffffffff1673ffffffffffffffffffffffffffffffffffffffff16815260200182815260200192505050602060405180830381600087803b1580156105f657600080fd5b505af115801561060a573d6000803e3d6000fd5b505050506040513d602081101561062057600080fd5b8101908080519060200190929190505050506000600560003373ffffffffffffffffffffffffffffffffffffffff1673ffffffffffffffffffffffffffffffffffffffff168152602001908152602001600020819055506000600760003373ffffffffffffffffffffffffffffffffffffffff1673ffffffffffffffffffffffffffffffffffffffff16815260200190815260200160002060006101000a81548160ff02191690831515021790555050565b60056020528060005260406000206000915090505481565b600360009054906101000a900473ffffffffffffffffffffffffffffffffffffffff1681565b600160009054906101000a900473ffffffffffffffffffffffffffffffffffffffff1673ffffffffffffffffffffffffffffffffffffffff163373ffffffffffffffffffffffffffffffffffffffff161461076a57600080fd5b60008090505b6004805490508110156109055760006004828154811061078c57fe5b9060005260206000200160009054906101000a900473ffffffffffffffffffffffffffffffffffffffff1690506000600a600560008473ffffffffffffffffffffffffffffffffffffffff1673ffffffffffffffffffffffffffffffffffffffff168152602001908152602001600020548161080457fe5b04905060008111156108f657600260009054906101000a900473ffffffffffffffffffffffffffffffffffffffff1673ffffffffffffffffffffffffffffffffffffffff1663a9059cbb83836040518363ffffffff1660e01b8152600401808373ffffffffffffffffffffffffffffffffffffffff1673ffffffffffffffffffffffffffffffffffffffff16815260200182815260200192505050602060405180830381600087803b1580156108b957600080fd5b505af11580156108cd573d6000803e3d6000fd5b505050506040513d60208110156108e357600080fd5b8101908080519060200190929190505050505b50508080600101915050610770565b50565b60076020528060005260406000206000915054906101000a900460ff1681565b600160009054906101000a900473ffffffffffffffffffffffffffffffffffffffff1681565b60066020528060005260406000206000915054906101000a900460ff1681565b600081116109e4576040517f08c379a00000000000000000000000000000000000000000000000000000000081526004018080602001828103825260138152602001807f416d6d6f756e742063616e6e6f7420626520300000000000000000000000000081525060200191505060405180910390fd5b600360009054906101000a900473ffffffffffffffffffffffffffffffffffffffff1673ffffffffffffffffffffffffffffffffffffffff166323b872dd3330846040518463ffffffff1660e01b8152600401808473ffffffffffffffffffffffffffffffffffffffff1673ffffffffffffffffffffffffffffffffffffffff1681526020018373ffffffffffffffffffffffffffffffffffffffff1673ffffffffffffffffffffffffffffffffffffffff1681526020018281526020019350505050602060405180830381600087803b158015610ac157600080fd5b505af1158015610ad5573d6000803e3d6000fd5b505050506040513d6020811015610aeb57600080fd5b81019080805190602001909291905050505080600560003373ffffffffffffffffffffffffffffffffffffffff1673ffffffffffffffffffffffffffffffffffffffff1681526020019081526020016000205401600560003373ffffffffffffffffffffffffffffffffffffffff1673ffffffffffffffffffffffffffffffffffffffff16815260200190815260200160002081905550600660003373ffffffffffffffffffffffffffffffffffffffff1673ffffffffffffffffffffffffffffffffffffffff16815260200190815260200160002060009054906101000a900460ff16610c3a5760043390806001815401808255809150509060018203906000526020600020016000909192909190916101000a81548173ffffffffffffffffffffffffffffffffffffffff021916908373ffffffffffffffffffffffffffffffffffffffff160217905550505b6001600760003373ffffffffffffffffffffffffffffffffffffffff1673ffffffffffffffffffffffffffffffffffffffff16815260200190815260200160002060006101000a81548160ff0219169083151502179055506001600660003373ffffffffffffffffffffffffffffffffffffffff1673ffffffffffffffffffffffffffffffffffffffff16815260200190815260200160002060006101000a81548160ff02191690831515021790555050565b60048181548110610cfa57fe5b906000526020600020016000915054906101000a900473ffffffffffffffffffffffffffffffffffffffff168156fea265627a7a7231582091e7d4ec5455efac39e29a7a22f9e60d278586a738c755a8f0787a6b3895bcd464736f6c63430005110032",
  "source": "pragma solidity ^0.5.0;\n\nimport \"./RWD.sol\";\nimport \"./Tether.sol\";\n\ncontract DecentralBank {\n    string public name = \"Decentral Bank\";\n    address public owner;\n\n    RWD public rwd;\n    Tether public tether;\n\n    address[] public stakers;\n\n    mapping(address => uint256) public stakingBalance;\n    mapping(address => bool) public hasStaked;\n    mapping(address => bool) public isStaking;\n\n    constructor(RWD _rwd, Tether _tether) public {\n        rwd = _rwd;\n        tether = _tether;\n        owner = msg.sender;\n    }\n\n    // Staking function (depositing tether token to the decentral bank for staking)\n    function depositTokens(uint256 _amount) public {\n        require(_amount > 0, \"Ammount cannot be 0\");\n\n        tether.transferFrom(msg.sender, address(this), _amount);\n        stakingBalance[msg.sender] = stakingBalance[msg.sender] + _amount;\n\n        if (!hasStaked[msg.sender]) {\n            stakers.push(msg.sender);\n        }\n\n        isStaking[msg.sender] = true;\n        hasStaked[msg.sender] = true;\n    }\n\n    function unstakeToken() public {\n        uint256 balance = stakingBalance[msg.sender];\n\n        require(balance > 0, \"Ammount cannot be 0\");\n\n        tether.transfer(msg.sender, balance);\n\n        stakingBalance[msg.sender] = 0;\n        isStaking[msg.sender] = false;\n    }\n\n    // Issue Rewards Tokens\n    function issueTokens() public {\n        require(msg.sender == owner);\n\n        for (uint256 i = 0; i < stakers.length; i++) {\n            address recipient = stakers[i];\n            // 10% reward to incentive\n            uint256 reward = stakingBalance[recipient] / 10;\n\n            // Prevent of sending 0 tokens\n            if (reward > 0) {\n                rwd.transfer(recipient, reward);\n            }\n        }\n    }\n}\n",
  "sourcePath": "/Users/kroger/Projects/defi-staking-app/src/contracts/DecentralBank.sol",
  "compiler": {
    "name": "solc",
    "version": "0.5.17+commit.d19bba13.Emscripten.clang"
  },
  "schemaVersion": "3.4.11",
  "updatedAt": "2023-02-02T15:31:24.384Z",
  "networkType": "ethereum",
  "devdoc": {
    "methods": {}
  },
  "userdoc": {
    "methods": {}
  }
}